:020000040800F2
:1000000020040020450100086D0300086503000876
:10001000690300082F0200086507000800000000BF
:10002000000000000000000000000000650400085F
:1000300033020008000000006F03000851050008AB
:100040005F0100085F0100085F0100085F01000810
:100050005F0100085F0100085F0100085F01000800
:100060005F0100085F0100085F0100085F010008F0
:100070005F0100085F0100085F0100085F010008E0
:100080005F0100085F0100085F0100085F010008D0
:100090005F0100085F0100085F0100085F010008C0
:1000A0005F0100085F0100085F0100085F010008B0
:1000B0005F0100085F0100085F0100085F010008A0
:1000C0005F0100085F0100085F0100085F01000890
:1000D0005F0100085F0100085F0100085F01000880
:1000E0005F0100085F0100085F0100085F01000870
:1000F0005F0100085F0100085F0100085F01000860
:100100005F0100085F0100085F0100085F0100084F
:100110005F0100085F0100085F0100085F0100083F
:100120005F0100085F0100085F0100085F0100082F
:10013000DFF80CD000F04AF80048004771100008C2
:10014000200400200648804706480047FEE7FEE7F7
:10015000FEE7FEE7FEE7FEE7FEE7FEE7FEE7FEE777
:1001600059050008310100082DE9F05F054600201F
:1001700092469B4688460646814640241BE0284618
:1001800041464746224600F042F853465A46C01AB6
:10019000914110D311461846224600F029F82D1A35
:1001A00067EB01084F4622460120002100F020F8AD
:1001B00017EB00094E41201EA4F10104DFDC484684
:1001C00031462A464346BDE8F09F0000064C074DE5
:1001D00006E0E06840F0010394E807009847103417
:1001E000AC42F6D3FFF7A8FFD4100008F4100008C3
:1001F000202A04DB203A00FA02F1002070479140E7
:10020000C2F1200320FA03F3194390407047202ADB
:1002100004DB203A21FA02F00021704721FA02F3B0
:10022000D040C2F12002914008431946704700BFF8
:10023000FEE770472DE9F041024600250026002028
:1002400000230024002791F803C00CF00F0591F85B
:1002500003C00CF0100CBCF1000F03D091F802C0E9
:100260004CEA050591F800C0BCF1000F31D01468CC
:1002700000202BE04FF0010C0CFA00F3B1F800C0A5
:100280000CEA03069E4220D183004FF00F0C0CFABB
:1002900003F7BC4305FA03FC4CEA040491F803C0DD
:1002A000BCF1280F06D14FF0010C0CFA00FCC2F88B
:1002B00014C00AE091F803C0BCF1480F05D14FF01B
:1002C000010C0CFA00FCC2F810C0401C0828D1D365
:1002D0001460B1F800C0BCF1FF0F34DD5468002099
:1002E0002EE000F1080C4FF0010808FA0CF3B1F809
:1002F00000C00CEA03069E4221D183004FF00F0C90
:100300000CFA03F7BC4305FA03FC4CEA040491F829
:1003100003C0BCF1280F05D100F1080C08FA0CF855
:10032000C2F8148091F803C0BCF1480F07D100F166
:10033000080C4FF0010808FA0CF8C2F81080401CB5
:100340000828CED35460BDE8F081024600209368AF
:100350000B400BB1012000E0002070474161704765
:100360000161704700BFFEE700BFFEE770477047BE
:1003700029B1064A92690243044B9A6104E0034A98
:1003800092698243014B9A6170470000001002405D
:1003900030B500210022002400232D4D6D6805F0AA
:1003A0000C0121B1042905D0082923D105E0294DEC
:1003B000056022E0274D05601FE0254D6D6805F4BE
:1003C0007012234D6D6805F48034022505EB9242CE
:1003D0001CB9214D554305600BE01D4D6D6805F4BA
:1003E00000351DB11C4D5543056002E0194D5543C4
:1003F000056002E0174D056000BF00BF144D6D6839
:1004000005F0F0010909154D6B5C0568DD4045609C
:100410000F4D6D6805F4E061090A104D6B5C45688D
:10042000DD4085600A4D6D6805F46051C90A0B4DC9
:100430006B5C4568DD40C560054D6D6805F4404165
:10044000890B074D6B5CC568B5FBF3F5056130BDE5
:100450000010024000127A0000093D000000002058
:1004600010000020704710B500F002F810BD000029
:100470000CB50020019000903348006840F48030B3
:100480003149086000BF3048006800F40030009037
:100490000198401C0190009818B90198B0F5A06F20
:1004A000F1D12948006800F4003010B1012000901B
:1004B00001E0002000900098012843D12348006803
:1004C00040F01000214908600846006820F0030051
:1004D00008600846006840F0020008601A4840685A
:1004E000194948600846406848600846406840F43A
:1004F000806048600846406820F47C1048600846E8
:10050000406840F4E81048600846006840F0807099
:10051000086000BF0C48006800F000700028F9D0A7
:100520000948406820F003000749486008464068D1
:1005300040F00200486000BF0348406800F00C0033
:100540000828F9D10CBD0000001002400020024034
:1005500010B500F031F810BD10B51348006840F038
:1005600001001149086008464068104908400E49DA
:100570004860084600680E4908400B490860084674
:10058000006820F4802008600846406820F4FE00DF
:1005900048604FF41F008860FFF765FF4FF0006070
:1005A0000449086010BD0000001002400000FFF880
:1005B000FFFFF6FE08ED00E00448006820B10348A4
:1005C0000068401E014908607047000014000020C8
:1005D00021B1828942F40052828104E082894DF681
:1005E000FF731A408281704702460020B1F5007FF8
:1005F00000D100BF13880B400BB1012000E00020A8
:10060000704700002DE9F04786B005460E460024ED
:10061000A24600BFA1460027B08900B100BF2F4607
:100620002C8A4CF6FF700440F08804432C82AC897D
:100630004EF6F3100440B0883189084371890843AD
:100640000443AC81AC8A4FF6FF400440B0890443B8
:10065000AC8201A8FFF79CFE1F48874202D1DDF85B
:1006600010A001E0DDF80CA0A88900F4004040B122
:100670000AEBCA0000EB0A1031684900B0FBF1F840
:1006800007E00AEBCA0000EB0A1031688900B0FBF2
:10069000F1F86420B8FBF0F004012009642101FBAB
:1006A0001089A88900F4004040B1322000EBC90055
:1006B000B0FBF1F000F00700044308E0322000EB4B
:1006C00009106421B0FBF1F000F00F0004432C810D
:1006D00006B0BDE8F087000000380140C1F3080211
:1006E0008280704700B585B001218803FFF740FE86
:1006F00001210420FFF73CFE4FF40070ADF810001C
:1007000018208DF8130003208DF8120004A9134857
:10071000FFF790FD4FF48060ADF8100004208DF8D5
:10072000130004A90D48FFF785FD4FF4E130009058
:100730000020ADF80400ADF80600ADF80800ADF8F3
:100740000C000C20ADF80A0069460548FFF75AFF77
:1007500001210348FFF73CFF05B000BD0008014040
:100760000038014000BFFEE70FB4054B10B503A9E8
:10077000044A029800F018F810BC5DF814FB000061
:10078000850E00081800002002E008C8121F08C1EA
:10079000002AFAD170477047002001E001C1121F02
:1007A000002AFBD1704700002DE9FF4F8DB00F46A6
:1007B0000546002606E025280BD0DDE90F129047FC
:1007C0006D1C761C28780028F5D111B03046BDE8A4
:1007D000F08F0024A246A1460122EC4900E0044328
:1007E00015F8013F203B02FA03F00842F7D12878C0
:1007F0002A2810D06FF02F022878A0F130010929A3
:1008000014D80AEB8A0102EB410144F0020400EB28
:10081000010A6D1CF0E701CF5FEA000A03D544F43A
:100820000054CAF1000A44F002046D1C28782E28F6
:1008300017D115F8010F44F004042A280ED06FF0E8
:100840002F022878A0F1300109290AD809EB890183
:1008500002EB410100EB01096D1CF2E757F8049B24
:100860006D1C28786C280FD006DC4C2817D068281F
:100870000DD06A2814D104E0742810D07A280FD142
:100880000DE044F400140AE044F4801401E044F460
:1008900040146978814202D104F580146D1C6D1CEE
:1008A0002A786E2A1FD00CDC632A31D004DC002A9F
:1008B0008BD0582A11D1A3E0642A68D0692A0CD1C0
:1008C00065E0732A2ED004DC6F2A73D0702A04D11D
:1008D0009BE0752A6FD0782A6ED01046DDE90F12A2
:1008E0009047761C50E1C4F30250022806D003283A
:1008F00009D0042801CF09D0066045E101CFF117E6
:10090000C0E9006140E101CF06803DE106703BE1B6
:1009100017F8040B8DF8000000208DF80100EB465D
:10092000012003E057F804BB4FF0FF3061074FF0A0
:10093000000102D40DE008F10101884649450FDAB3
:100940008045F8DB1BF808100029F4D108E008F115
:10095000010188468142FADB1BF808100029F6D114
:10096000DDE90F23AAEB08008146214600F036F9A5
:10097000304400EB080604E0DDE90F121BF8010B20
:100980009047B8F10108F7D221464846F7E00A211E
:10099000C4F302534FF0000B0891022B04D001CF97
:1009A000C117032B09D00AE0FF1D27F00707F7E85E
:1009B000020108E032E01FE020E000B2C117042B82
:1009C00001D140B2C117031E71F1000307DA4FF0E5
:1009D000000CD0EB0C006CEB01012D2302E0230591
:1009E00004D52B238DF82430012303E0E30701D045
:1009F0002023F7E7984658E00A2110E010210EE086
:100A000010204FF0000B08900CE010214FF0000B6D
:100A100044F004044FF00809089103E008214FF066
:100A2000000B0891C4F30253022B04D001CF002124
:100A3000032B06D006E0FF1D27F00707F7E80201A9
:100A400003E080B2042B00D1C0B24FF000082307AE
:100A50002BD5702A07D0DDF820C08CF0100C5CEA92
:100A60000B0C05D00EE040238DF82430012308E064
:100A700050EA010306D030238DF824308DF825206C
:100A800002239846DDF820C08CF0080C5CEA0B0CC1
:100A90000BD150EA010301D1630706D530238DF84D
:100AA00024304FF00108A9F10109582A04D038A2D6
:100AB0000B9208AA0A920BE03AA2F9E75B46089A61
:100AC000FFF752FB0B9B9B5C0A9A521E0A92137013
:100AD00050EA0102F2D10A98ADEB000000F1200BC0
:100AE000600702D524F4803401E04FF00109D945B4
:100AF00002DDA9EB0B0000E0002000EB0B014144FC
:100B00000890AAEB010AE00306D4DDE90F23214691
:100B1000504600F063F806444FF0000908E009A9C8
:100B200011F80900DDE90F12904709F10109761C5F
:100B3000C145F4DBE0030CD5DDE90F232146504627
:100B400000F04CF8064404E0DDE90F123020904735
:100B5000761C0899481E08900029F5DC08E00A98E0
:100B60000A990078491C0A91DDE90F129047761C1A
:100B7000BBF10001ABF1010BF1DC21465046DDE990
:100B80000F2300F019F806446D1C1BE6092801002C
:100B900030313233343536373839616263646566F3
:100BA00000000000303132333435363738394142B5
:100BB00043444546000000002DE9F041044600256D
:100BC0001E461746880404D405E039462020B04765
:100BD0006D1C641EF9D52846BDE8F0812DE9F04171
:100BE000044600251E469046C80301D5302700E084
:100BF0002027880404D505E041463846B0476D1CDF
:100C0000641EF9D52846BDE8F08101B502E00098E0
:100C1000401E009000980028F9D108BD2DE9F04150
:100C200006460F46154600F0CFF9A02000F09EF9C9
:100C300000F0F6F900B125E0F8B200F097F900F005
:100C4000EFF900B11EE000F0BFF9A12000F08EF92D
:100C500000F0E6F900B115E000240CE000F064F9C2
:100C60003055681EA04202D000F01EF901E000F0ED
:100C700045F9601C84B2AC42F0DB00F0BFF9012002
:100C8000BDE8F08100F0BAF90020F9E730B5ADF524
:100C9000017D054600F0EAF830B923A0FFF764FDB6
:100CA00000200DF5017D30BD002403E041A90D5564
:100CB000601C84B2FF2CF9DD4FF48072002141A842
:100CC00000F07CF820B91EA0FFF74EFD0020E8E7F9
:100CD00020A0FFF749FD2448FFF797FF4FF48072EB
:100CE000002101A8FFF79AFF20B920A0FFF73CFDE3
:100CF0000020D6E722A0FFF737FD00240DE001A871
:100D0000015D26A0FFF730FD04F00F000F2802D18F
:100D100021A0FFF729FD601C84B2FF2CEFDD21A08C
:100D2000FFF722FD0120BCE7C3BBD3D0BCECB2E28D
:100D3000B5BDB4AED0D0454550524F4D210D0A003F
:100D4000D0B4656570726F6DB3F6B4EDA3A10D0AF2
:100D500000000000D0B4656570726F6DB3C9B9A6AC
:100D6000A3A10D0A00000000FFFF0F00B6C16565DA
:100D700070726F6DB3F6B4EDA3A10D0A0000000010
:100D8000B6C1656570726F6DB3C9B9A6A3ACCAFD73
:100D9000BEDDC8E7CFC2A3BA0D0A0000202530325D
:100DA00058000000656570726F6DB6C1D0B4B2E2D4
:100DB000CAD4B3C9B9A60D0A000000002DE9F04756
:100DC000074688469146464600242CE014B106F0BA
:100DD0000700E8B900F012F900250AE000F0F4F885
:100DE000A02000F0C3F800F01BF900B904E0681C73
:100DF00085B2B5F57A7FF1DB00BFB5F57A7F00D11A
:100E000018E0F0B200F0B2F800F00AF900B111E019
:100E1000385D00F0ABF800F003F900B10AE0701C97
:100E200086B2601C84B24C45D0DB00F0E7F80120AC
:100E3000BDE8F08700F0E2F80020F9E708B50121ED
:100E40000820FFF795FAC020ADF8000003208DF8C8
:100E5000020014208DF8030069460348FFF7EAF901
:100E600000F0CCF808BD0000000C014010B5A02037
:100E700000F034F808B9012010BD00F0BFF80020E0
:100E8000FAE7000070B504460D46E1B20548FFF7E9
:100E900025FC00BF80210348FFF7A6FB0028F9D0FE
:100EA000204670BD0038014010B580210A48FFF788
:100EB00055FA00F0D5F840210748FFF751FA00F045
:100EC000CFF840210448FFF749FA00F0C9F8802123
:100ED0000148FFF745FA10BD000C014070B504460B
:100EE000FFF7ACFF00F070F8204600F03FF800F08C
:100EF00097F8054600F082F8284670BD10B58021AD
:100F00000848FFF72DFA00F0ABF840210548FFF73D
:100F100027FA00F0A5F840210248FFF71FFA00F079
:100F20009FF810BD000C014070B50024002516E0AC
:100F30006006040E40210C48FFF712FA00F090F80A
:100F400080210948FFF701FA08B1601CC4B24021B2
:100F50000548FFF703FA00F083F8681CC5B2082DB6
:100F6000E6DB204670BD0000000C014070B5044671
:100F7000002523E004F0800020B180211148FFF714
:100F8000EFF903E080210F48FFF7E8F900F068F877
:100F900040210C48FFF7E4F900F062F840210948CD
:100FA000FFF7DCF9072D03D180210648FFF7D8F9B8
:100FB0006006040E00F054F8681CC5B2082DD9DB99
:100FC00070BD0000000C014010B580210A48FFF7F9
:100FD000C7F940210848FFF7C3F900F041F8802124
:100FE0000548FFF7BBF900F03BF840210248FFF746
:100FF000B5F900F035F810BD000C014010B58021A6
:101000000648FFF7ABF940210448FFF7A9F900F0C3
:1010100027F880210148FFF7A3F910BD000C01401B
:1010200010B580210D48FFF79BF900F019F8402119
:101030000A48FFF795F900F013F880210748FFF7F9
:1010400084F908B1012400E0002440210348FFF79F
:1010500085F900F005F8204610BD0000000C0140A5
:10106000002001E0411CC8B20A28FBDB70470000E9
:1010700008B50BA000680090FFF734FB09A0FFF74C
:1010800073FBAD20FFF702FE012803D10DA0FFF78F
:101090006BFB02E00DA0FFF767FB002008BD00001E
:1010A00063000000656570726F6D20C8EDBCFEC402
:1010B000A3C4E2693263B2E2CAD4C0FDB3CC200D4E
:1010C0000A000000B3C9B9A60D0A0000CAA7B0DC27
:1010D0000D0A0000F4100008000000201C000000B1
:1010E00088070008101100081C00002004040000FC
:1010F0009807000800000000010203040102030435
:1011000006070809020406080000000000000000AD
:0400000508000131BD
:00000001FF
